:020000040800F2
:1000000048C2002045010008090900086F080008DF
:1000100005090008F1010008A90D00080000000012
:10002000000000000000000000000000AD0A000811
:10003000F5010008000000007D090008C10B000860
:100040005F0100085F0100085F0100085F01000810
:100050005F0100085F0100085F0100085F01000800
:100060005F0100085F0100085F0100085F010008F0
:100070005F0100085F0100085F0100085F010008E0
:100080005F0100085F0100085F0100085F010008D0
:100090005F0100085F0100085F0100085F010008C0
:1000A0005F0100085F0100085F0100085F010008B0
:1000B0005F010008250C00085F0100085F010008CF
:1000C0005F0100085F0100085F0100085F01000890
:1000D0005F0100085F0100085F0100085F01000880
:1000E0005F0100085F0100085F0100085F01000870
:1000F0005F0100085F0100085F0100085F01000860
:100100005F0100085F0100085F0100085F0100084F
:100110005F0100085F0100085F0100085F0100083F
:100120005F0100085F0100085F0100085F0100082F
:10013000DFF80CD000F04AF8004800475D310008B5
:1001400048C200200648804706480047FEE7FEE711
:10015000FEE7FEE7FEE7FEE7FEE7FEE7FEE7FEE777
:10016000C50B00083101000840EA01039B0703D0DA
:1001700009E008C9121F08C0042AFAD203E011F8E6
:10018000013B00F8013B521EF9D27047D2B201E0A8
:1001900000F8012B491EFBD270470022F6E710B58C
:1001A00013460A4604461946FFF7F0FF204610BDE5
:1001B00030B504460020034600E05B1C934203D2A6
:1001C000E05CCD5C401BF8D030BD0000064C074D14
:1001D00006E0E06840F0010394E807009847103417
:1001E000AC42F6D3FFF7A8FF94710008B471000881
:1001F00000BFFEE77047000070B50446002500F020
:10020000B5F9FF220021104600F084FA04E0681CD2
:1002100085B2012000F00AFE1D2000F05AF900F01E
:10022000010010B9B5F5FA7FF1DBB5F5FA7F01DB16
:10023000012070BD00204C4908600021082000F01A
:1002400041FA0021092000F03DFA00210C2000F0C5
:1002500039FA00210D2000F035FA10210A2000F0B3
:1002600031FA1A210B2000F02DFA1121042000F0A0
:1002700029FA1A21052000F025FAFF21062000F0B6
:1002800021FA1F21072000F01DFAB021382000F0CC
:1002900019FA3F21282000F015FA3021292000F01A
:1002A00011FAF921302000F00DFAF721312000F089
:1002B00009FA0D21C02000F005FA0021C12000F04C
:1002C00001FA3322C221802000F024FA1221C62034
:1002D00000F0F8F90C21C72000F0F4F91521C42032
:1002E00000F0F0F9EE21CA2000F0ECF90521CB2056
:1002F00000F0E8F92178E42000F0E4F96178E520E5
:1003000000F0E0F9A178E22000F0DCF9E178E320E8
:1003100000F0D8F92179E02000F0D4F96179E120EA
:1003200000F0D0F94FF48071002000F01FF84FF476
:100330008071102000F01AF81F2000F0A9F9C022E7
:100340001B21802000F0E6F904221F21802000F00C
:10035000E1F9E42000F0BDF82178884201D10020C5
:1003600067E7012065E700002400002070B505461E
:100370000C4600262946D42000F0A4F9E1B2D6208C
:1003800000F0A0F9C4F30721D72000F09BF901E0A9
:10039000701C86B2EA2000F09CF800F0010018B151
:1003A00040F6FF708642F3DB70BD00002DE9F0419E
:1003B00005460F46392000F08CF810B90020BDE842
:1003C000F08129480178002000F07CF92648008857
:1003D000C0F30721012000F075F900213A2000F058
:1003E000A1F82149086000213A2000F09BF81E493D
:1003F000096841EA00201C49086000213A2000F009
:1004000091F8044600213A2000F08CF844EA0024D8
:10041000241F00213A2000F085F8064600213A20EA
:1004200000F080F846EA0026681EA04200D26C1E4A
:1004300006F0800008B9002403E03946204600F0A9
:1004400053F8094801780C2000F03CF90648008870
:10045000C0F307210D2000F035F940221E21802035
:1004600000F058F92046AAE72400002070B50446A1
:100470000D461121022000F025F91A21032000F079
:1004800021F911202044C1B2062000F01BF941F6E9
:1004900011202044C0F30721072000F013F90022A7
:1004A00011467A2000F036F92946204600F016F968
:1004B00008221F21802000F02DF91C2000F009F8EF
:1004C00000F0020020B108221F21A02000F022F934
:1004D00070BD10B50446204600F0DAF82146002031
:1004E00000F020F810BD000070B505460C464FF432
:1004F00080710B4800F0B7F93A2000F061FA05E08E
:100500006D1E002000F05CFA2070641C002DF7D1F5
:10051000002020704FF48071014800F0A6F970BDF2
:100520000020014070B505460C4600264FF480714E
:100530000D4800F098F904F01F0040EA0506304627
:1005400000F03EFAFF2000F03BFA064604F080007F
:1005500018B1FF2000F034FA06464FF480710248CB
:1005600000F083F9304670BD0020014010B500F066
:1005700015F8082000F04EFA4021074800F073F902
:100580000A2000F053FC4021034800F06EF90A20D5
:1005900000F04CFC10BD00000020014000B587B009
:1005A0000121880300F0ECF901214FF4947000F070
:1005B000F7F90420ADF8040010208DF8070003209F
:1005C0008DF8060001A92E4800F0C2F804212C483D
:1005D00000F04BF94FF48050ADF8040001A9294810
:1005E00000F0B6F84FF48051264800F03EF94FF481
:1005F000E070ADF8040001A9234800F0A9F84FF419
:10060000E071214800F031F94FF46040ADF804008A
:1006100018208DF8070003208DF8060001A919485D
:1006200000F096F84FF46041164800F01EF90020E3
:10063000ADF808004FF48270ADF80A000020ADF864
:100640000C00ADF80E00ADF810004FF40070ADF8DE
:1006500012003820ADF814000020ADF81600072075
:10066000ADF8180002A9094800F002FA0121074874
:1006700000F0E4F9FF2000F0A3F907B000BD00008E
:1006800000140140000C01400020014000380040EF
:1006900010B5044604F060000949097888420ED07C
:1006A00003221F21A02000F035F8C4F341121F21BE
:1006B000802000F02FF804F060000149087010BDA0
:1006C0002000002070B504460D462046FFF7E0FFED
:1006D0002A462146402000F01DF870BD70B5044642
:1006E0000D464FF480710A4800F0BDF87A2000F002
:1006F00067F904E0641E287800F062F96D1C002C94
:10070000F8D14FF48071024800F0AFF870BD0000DE
:10071000002001402DE9F04104460D461646002711
:100720004FF48071094800F09EF805F01F0040EA80
:100730000407384600F044F9304600F041F94FF420
:100740008071024800F091F8BDE8F081002001407E
:100750002DE9F04102460025002600200023002458
:10076000002791F803C00CF00F0591F803C00CF0BE
:10077000100CBCF1000F03D091F802C04CEA050543
:1007800091F800C0BCF1000F31D0146800202BE0BC
:100790004FF0010C0CFA00F3B1F800C00CEA0306AC
:1007A0009E4220D183004FF00F0C0CFA03F7BC439C
:1007B00005FA03FC4CEA040491F803C0BCF1280FCD
:1007C00006D14FF0010C0CFA00FCC2F814C00AE08C
:1007D00091F803C0BCF1480F05D14FF0010C0CFAA1
:1007E00000FCC2F810C0401C0828D1D31460B1F836
:1007F00000C0BCF1FF0F34DD546800202EE000F192
:10080000080C4FF0010808FA0CF3B1F800C00CEA2C
:1008100003069E4221D183004FF00F0C0CFA03F720
:10082000BC4305FA03FC4CEA040491F803C0BCF194
:10083000280F05D100F1080C08FA0CF8C2F8148052
:1008400091F803C0BCF1480F07D100F1080C4FF03C
:10085000010808FA0CF8C2F81080401C0828CED312
:100860005460BDE8F081416170470161704700BF8D
:10087000FEE7000008B50121482000F091F8202093
:10088000ADF8000010208DF8030003208DF8020061
:1008900069460948FFF75CFF20210748FFF7E5FF9D
:1008A0002020ADF8000069460448FFF751FF2021E1
:1008B0000248FFF7DAFF08BD000C014000180140B4
:1008C00001B59DF8000000F0010020B120210B4887
:1008D000FFF7C9FF03E020210848FFF7C6FF9DF896
:1008E0000000C0F3400020B120210548FFF7BBFF06
:1008F00003E020210248FFF7B8FF08BD000C0140CB
:100900000018014000BFFEE77047000070B50021ED
:1009100000230F22C47804B3154C246804F4E06467
:10092000C4F5E064210AC1F10403CA40447804FA22
:1009300003F184781440214309010E4C0678A15537
:10094000047804F01F050124AC4005786D11AD005A
:1009500005F1E025C5F8004109E0047804F01F0521
:100960000124AC40044D0678761145F8264070BD50
:100970000CED00E000E400E080E100E070470000E2
:1009800029B1064AD2690243044BDA6104E0034A02
:10099000D2698243014BDA617047000000100240C7
:1009A00029B1064A92690243044B9A6104E0034A62
:1009B00092698243014B9A61704700000010024027
:1009C00070B50546002405E0601CC4B2C82C01DDEA
:1009D000002070BD02210E4800F03CF80028F3D042
:1009E00029460B4800F042F8002405E0601CC4B220
:1009F000C82C01DD0020ECE70121054800F02AF8B1
:100A00000028F3D0024800F02EF8C0B2E1E7000061
:100A10000038004010B50446074800884FF6C771FB
:100A200008400549088008460088204308800121C5
:100A3000014800F003F810BD0038004021B10288E1
:100A400042F04002028004E002884FF6BF731A4071
:100A5000028070470246002013890B400BB1012031
:100A600000E0002070470146888970478181704707
:100A700010B50022028802F441520B884C882343AF
:100A80008C882343CC8823430C8923434C892343FC
:100A90008C892343CC8923431A430280838B4FF2F2
:100AA000FF74234083830B8A038210BD704710B507
:100AB00000F002F810BD00000CB50020019000907D
:100AC0003348006840F480303149086000BF304846
:100AD000006800F4003000900198401C01900098DC
:100AE00018B90198B0F5A06FF1D12948006800F459
:100AF000003010B10120009001E00020009000982B
:100B0000012843D12348006840F0100021490860C3
:100B10000846006820F0030008600846006840F0BE
:100B2000020008601A484068194948600846406851
:100B300048600846406840F4806048600846406865
:100B400020F47C1048600846406840F4E810486093
:100B50000846006840F08070086000BF0C480068DC
:100B600000F000700028F9D00948406820F0030028
:100B7000074948600846406840F00200486000BFEE
:100B80000348406800F00C000828F9D10CBD0000B3
:100B90000010024000200240042808D14FF0E0215C
:100BA000096941F004014FF0E022116107E04FF0C4
:100BB000E021096921F004014FF0E0221161704742
:100BC0007047000010B51348006840F0010011495B
:100BD000086008464068104908400E4948600846C9
:100BE00000680E4908400B4908600846006820F478
:100BF000802008600846406820F4FE0048604FF4FA
:100C00001F008860FFF753FF4FF000600449086041
:100C100010BD0000001002400000FFF8FFFFF6FECC
:100C200008ED00E010B50121074800F050F8012858
:100C300004D106480068401C0449086001210248AC
:100C400000F036F810BD0000000400400000002055
:100C50007FB505460C4601210220FFF791FEADF855
:100C60000850ADF804400020ADF80A00ADF80600C9
:100C700001A90E4800F046F8012211460B4800F089
:100C800037F81D208DF8000001208DF801000320A9
:100C90008DF8020001208DF803006846FFF736FE4C
:100CA0000121024800F007F87FBD00000004004069
:100CB000CA430282704721B1028842F001020280D9
:100CC00004E002884FF6FE731A400280704730B588
:100CD0000246002000230024158A05EA01039589B5
:100CE00005EA010413B10CB1012000E0002030BD81
:100CF0001AB183890B43838102E083898B4383810B
:100D000070470000002202881D4B98420ED01D4BF8
:100D100098420BD0B0F1804F08D01B4B984205D0C1
:100D20001A4B984202D01A4B984204D14FF68F7357
:100D30001A404B881A43174B984207D0164B9842DB
:100D400004D04FF6FF431A40CB881A4302808B88A9
:100D500083850B8803850A4B98420BD0094B984238
:100D600008D00E4B984205D00D4B984202D00D4B47
:100D7000984201D10B7A03860123838270470000D9
:100D8000002C0140003401400004004000080040F5
:100D9000000C0040001000400014004000400140E2
:100DA000004401400048014000BFFEE702E008C8DF
:100DB000121F08C1002AFAD170477047002001E0D5
:100DC00001C1121F002AFBD17047000010B5044674
:100DD00000F044FE0022034941F2883003F07EF81F
:100DE00010BD0000CD0D000810B56FF00400FFF736
:100DF000D3FE0A4800680A49B0FBF1F009490870BF
:100E00000846007800EB4001C1EBC0104FF6FF71BF
:100E100001EAC0000449088010BD0000080000205D
:100E200000127A00280000202A0000200146114A02
:100E300012884A434FF0E0235A6100229A611A4611
:100E4000126942F001021A6100BF4FF0E0221069FE
:100E500000F001021AB100F48032002AF5D04FF000
:100E6000E022126922F001024FF0E0231A61002211
:100E70009A6170472A00002010B5002404E0204643
:100E800000F006F8601CC4B2042CF8DB10BD0000B2
:100E900070B50546C5EBC50000EB8000354901EB98
:100EA000C00400BF00BF207800285CD0012804D017
:100EB000022812D0032857D14CE0022020700020D5
:100EC00060700120A0700020E07060782A4604F174
:100ED0000C0100F075F9064649E0A078401EC0B24A
:100EE000A070B0BBE078401CC0B2E070042826D1EE
:100EF0006078401C022812DA6078401C1E4901EB21
:100F0000800060B16078401C51F8200038B16078F2
:100F1000401C60700120A0700020E07027E0D4F831
:100F2000100138B1002104F10C00D4F81031D4F8CC
:100F30001421984700202070C4F8100117E0E078D1
:100F4000A07060782A4604F10C0100F039F90646D9
:100F500000BF0CE0A068401EA06018B900202070FF
:100F6000C4F8100103E002E000BF00BF00BF00BFF3
:100F700070BD0000E40000203400002010B50246DF
:100F800000BF11F8013B03F0C000C02800D110E001
:100F900009E010780C78A04201D0012010BD491C56
:100FA000521C581EC3B2002BF3DC521C08780028D8
:100FB000E7D100BF0020F1E708B5134820F0030097
:100FC0001249086012A001F04BFE0090144800681E
:100FD000C0B905F079FF124908600846006888B179
:100FE00000BF00BF00220F490D48006805F0D6FD84
:100FF00000220D490A48006805F0A0FF694600205C
:1010000000F050F908BD0000470500203C0000201A
:101010003230382E36372E3232322E323232000013
:101020002C0000200871000859100008014600BF7C
:1010300011F8012B02F0C000C02800D108E002E046
:10104000491C501EC2B2002AFADC08780028EFD1F1
:1010500000BF481C704700002DE9FE4F1546DDF823
:1010600030B02889B0F5007F00DD9EE028891A287D
:1010700000DA9AE02A8900234E480168284602F0E7
:1010800093FD298988427FD14A480668308801F05B
:10109000ACFF8046B8F1040F76DAC8EBC80000EB6D
:1010A0008000454901EBC004207802286CD1032060
:1010B0002070F07800F00F006071B08801F095FFAB
:1010C0008246F08801F091FF8146B07800F0800000
:1010D00020B1607910B9BAF1010F00D055E0354860
:1010E00001680C3104F10C00FFF748FF00B14CE03F
:1010F000304800680C30FFF799FF071D40E0384684
:10110000FFF794FF074638680090786801903889A7
:10111000ADF80800BDF80000B0F5807F25D1BDF81E
:101120000200B0F5807F20D1BDF80800B0F5806FD7
:101130001BD1019801F0A0FFA0602049A06888425F
:1011400001D90846A060D7F80A10C4F80C11D4F8E9
:10115000100140B104F5867104F10C00D4F810318F
:10116000D4F81421984720E00EE0BDF8080001F003
:101170003CFF07F10A014718A9F101001FFA80F9A5
:10118000B9F1000FBBDC00E00FE0D4F8100138B17A
:10119000002104F10C00D4F81031D4F81421984740
:1011A00000202070C4F8100100BF284602F045FD61
:1011B000BDE8FE8F3C000020E4000020803A0900DA
:1011C0002DE9F74F82B08046894600BF00BF00BFBF
:1011D00000BF00224FF48871104602F04EFB074614
:1011E000002F54D000BF00BF7E68002030607060C8
:1011F000B060049801F0F9FE30800120B070000268
:10120000B08006F10C044D466D1E00BF6D1CA34658
:10121000641C0020009007E028782070641C00986F
:10122000401CC0B200906D1C28782E2802D028786F
:101230000028F1D100988BF8000028780028E5D12B
:1012400004F8010B4FF48070ADF80400ADF806000F
:1012500001982060BA88201D801A81B2384602F0B9
:1012600075FD0E4800EB880135220D48006805F039
:10127000D5FC0A4800EB8802352339460848006847
:1012800005F060FE8246384602F0D7FC01E04FF0E0
:10129000FF3A504605B0BDE8F08F00003400002052
:1012A0002C00002002280ADA054A12683AB131B14E
:1012B00029B10A681AB1034A0B6842F82030704716
:1012C0002C0000203400002010B5044600F00AF87D
:1012D000002203494FF47A7002F000FE10BD0000B6
:1012E000C912000810B50348006808B1FFF7C4FD33
:1012F00010BD00002C0000202DE9FC470546884663
:10130000164600BF0DB9BDE8FC8700BF70892A28CA
:101310000EDA4B48408C401C81B249484184C08B56
:10132000401C81B24648C183304602F086FCEAE7A1
:10133000776807F10E042088B0F5807F08D1207906
:10134000062805D16079042802D1608808280ED0CB
:101350003B48008D401C81B239480185C08B401C40
:1013600081B23748C183304602F067FCCBE734488E
:10137000408B401C81B232484183D4F80E0001906A
:10138000A0690090281D08B1686810B94FF00009E5
:1013900007E000986968884201D1012000E0002040
:1013A0008146B9F1000F01D0012000E00220034680
:1013B00004F1080201A9284600F098FBE088B0F586
:1013C000807F03D0B0F5007F2DD12BE0B9F1000F65
:1013D00026D0022001F009FEE080D4F80E00A061C2
:1013E0006868C4F80E0000BF00BFA068C4F812000F
:1013F000A089E082A0683860A089B880D8F8000091
:10140000A060B8F80400A081D8F80000C7F8060072
:10141000B8F80400788131462846AA69904700E070
:1014200000BF07E006E00648808D401C81B20448FA
:10143000818500BF00BF304602F0FFFB00BF62E7BE
:1014400058B000202DE9FC5F05460F464FF00A0812
:10145000C1460A260024A34600200190B24600900F
:1014600000BF5EE004EB84004E4A02EB8000817C0A
:101470000A2E02D109B966B251E000294FD000BF4F
:1014800000BF5DB104EB8402464B03EB8202286887
:101490005268904202D160B2BDE8FC9F012928D178
:1014A00004EB84003F4A52F8200088B104EB84002A
:1014B00002EB8000C27C0098824230DB4FFA84FA53
:1014C00004EB8400374A02EB8000C07C009026E0E9
:1014D00004EB8400334A02EB8000C07C58451EDBDD
:1014E0004FFA84F804EB840002EB800090F813B00C
:1014F00015E0022913DB042911DA04EB8400294AE0
:1015000002EB8000C27C0198824208DB4FFA84F92A
:1015100004EB8400234A02EB8000C07C0190601C35
:10152000C4B20A2C9EDB07F0020020B90A2E05D1B6
:1015300007F0010010B94FF0FF30ADE70A2E01DAD5
:10154000F4B21AE0B9F10A0F03DA09F0FF0400BFA0
:101550000EE0B8F10A0F02DA08F0FF0408E0BAF171
:101560000A0F02DA0AF0FF0402E04FF0FF3093E7BF
:1015700000BF00BF204600F017F800BF00BF00BF4B
:1015800000BF35B104EB8401064A02EB81012868F3
:101590004860002004EB8401024A02EB8101C87418
:1015A00060B279E780B1002010B5044604EB8400F6
:1015B0000C4951F8200060B104EB8401094A52F84B
:1015C000210002F03AFB002004EB8401054A42F8B6
:1015D0002100002004EB8401024A02EB810188749F
:1015E00010BD000080B100202DE9FC4704460F46E5
:1015F0001546A94600BF00BF00BF00BF00BF00BF27
:101600000E21384602F05CFB40B14B484089401C3B
:10161000494948816FF00100BDE8FC8721462868F0
:1016200000F065FD10B1DFF814817DE0287800F04E
:10163000F000E02815D101208DF8000000208DF881
:1016400001005E208DF80200687800F07F008DF8C0
:101650000300A8788DF80400E8788DF80500E846C6
:1016600061E02868A1680840D4E90112114088426D
:1016700010D0288880B24FF6A96188420AD004F1C0
:101680000C0020B1E06810B104F10C0902E06FF029
:101690000300C1E72A48007800EB8000294901EBEC
:1016A0008000807C022818DB2549097801EB810144
:1016B000244A02EB8101D9F80000496888420CD124
:1016C0001D48C08D401C81B21B48C1851C48027852
:1016D0003946204600F038F89EE700261BE006EB6E
:1016E0008600184901EB8000807C022811DB06EBA4
:1016F0008601144A02EB8101D9F80000496888424A
:1017000007D10F490E70F2B23946204600F01CF89E
:1017100082E7701C46B20A2EE1DB3A464946204673
:1017200000F048F878E700BF434604F12302394649
:10173000204600F077F96FE758B0002010710008DC
:10174000CE00002080B1002070B505460E4614463C
:1017500000BF00BF04EB8400154901EB8000807CD2
:10176000022817D104EB840001EB8000C07CE42840
:1017700010DB04EB84000A4602EB8000011D2846C2
:1017800000F03AF930B9032004EB8401084A02EB77
:101790008101887404EB8400054901EB800000F1AD
:1017A0000C0305F123023146284600F03BF970BDD9
:1017B00080B100202DE9F05F80460F46164608F103
:1017C00023094FF0FF3A4146386800F090FC38B9E1
:1017D000387800F0F000E02802D00FB1386818B96E
:1017E0006FF00D00BDE8F09F01213846FFF72AFE9B
:1017F0000446002C08DA2EB14948808C401C81B286
:10180000474881842046EDE704EB8400454901EB1D
:101810008000807C30B9012004EB8401414A02EB56
:101820008101887400BF00BF04EB84003D4901EBD7
:101830008000807C012800D03EB93946404600F047
:10184000DBF882460EB95046CCE700BF00BF04EB80
:101850008400344901EB8000807C02280FDB324990
:101860000C7004EB84002F4901EB800000F10C03A5
:101870004A463146404600F0D5F882464EE004EB39
:101880008400284901EB8000807C012846D14FF07C
:10189000000B354608E000BF00BF287B012802D0BE
:1018A0004FF0010B02E02D68002DF4D100BFBBF119
:1018B000000F10D029890022032001F0DEFF054629
:1018C0006DB13146284602F00FF940B1284602F0CA
:1018D000B4F9002503E03546284602F073FAA5B1B5
:1018E00004EB84000F4951F8200030B104EB84016F
:1018F0000C4A52F8210002F0A0F904EB84000949D7
:1019000041F820504FF0000A07E00548808C401C49
:1019100081B2034881844FF0FF3A00BF504661E72F
:1019200058B0002080B10020CE0000202DE9F84FF3
:101930000746884691469A46DDF828B00020009078
:1019400000BF00BF00222A21032001F096FF0546B8
:101950004DB92848808C401C81B2264881844FF0C4
:10196000FF30BDE8F88F00BF00BF6E6806F10E04BF
:101970000D9801F03AFBE08000BF00BFDAF80000EC
:10198000A060BAF80400A0810B980168C4F8121096
:101990008088E082D9F800003060B9F80400B08097
:1019A000D8F80000C6F80600B8F804007081DBF82B
:1019B0000000C4F80E000C980068A0614FF480701D
:1019C00020800820608006202071042060714FF480
:1019D000C160B08129463846BA69904700900548F1
:1019E000008B401C03490883284602F026F9002595
:1019F0000098B6E758B000207FB504460D46012197
:101A0000064A201D04F123038DE825000391044AB2
:101A100019462046FFF78AFF04B070BD1671000812
:101A2000107100082DE9F04105460E46174698460C
:101A3000746800BF00BFD8F800002060B8F8040048
:101A4000A0803868C4F80600B88860810820A081AA
:101A500031462846AA699047BDE8F08170B5002458
:101A60003FE004EB8400204901EB8000857C35B326
:101A7000042D34D004EB840001EB8000C07C401CBA
:101A800004EB8401184A02EB8101C87404EB840062
:101A9000114601EB8000C07CF0280DDA04EB8400D5
:101AA00001EB8000807C01280AD104EB840001EB6B
:101AB0008000C07C022803DB2046FFF775FD0EE0A6
:101AC00004EB8400084901EB8000807C032806D1E8
:101AD000022004EB8401044A02EB81018874601C3B
:101AE000C4B20A2CBDDB70BD80B100202DE9F047E7
:101AF00006460D461746984600BF00BF5DB12868F0
:101B000048B13146286800F0F2FA20B9287800F090
:101B1000F000E02803D16FF00D00BDE8F0874146EA
:101B20002846FFF78FFC0446002C01DA2046F4E734
:101B300008F0040038B1042004EB84011E4A02EBD3
:101B40008101887406E0022004EB84011A4A02EB4A
:101B50008101887404EB8400174901EB80008660E2
:101B600004EB840001EB80003968C160B988018210
:101B7000002004EB8401104A02EB8101C87404EBDD
:101B80008400114651F8200098B104EB840051F80C
:101B90002090002004EB840142F821003B4606F12E
:101BA000230249463046FFF73DFF484602F045F81C
:101BB00000BF0020B1E7000080B100202DE9F04116
:101BC00004460E464FF00E0860890E280BDC3348A1
:101BD000008D401C81B231480185C08B401C81B210
:101BE0002E48C18354E06568AF89287800F0010071
:101BF000B0B12878012809D1687888B9A8785E281A
:101C00000ED1607B40F01000607309E00622244989
:101C10002846FEF7CDFA18B9607B40F008006073E3
:101C2000082F03D0B7F5C16F22D114E096F8290030
:101C300000F0200000B92BE0C8F1000001B22046FE
:101C400002F03EF810B100BF00BF21E0314620464F
:101C500000F060FB18E096F8290000F0200000B9C1
:101C600016E0224606F123013046FFF745FB0BE064
:101C70000A48008D401C81B208480185C08B401C79
:101C800081B20648C18303E000BF0020BDE8F081B7
:101C9000204601F0D2FF0020F8E7000058B00020F5
:101CA0001071000870B5044600BF00BF042001F0A9
:101CB000FFFA054615B94FF0FF3070BDE5616520AC
:101CC00084F82A006E212B200155064860610648E1
:101CD000A06104F123002860204601F08BF8002069
:101CE000EBE70000E9150008C92E00082DE9F041D6
:101CF0000446E769204601F0AFF805460DB9BDE896
:101D0000F0816E68B08901F070F9B0F5006F03D012
:101D1000A0F6060058B900E000BF21462846226917
:101D2000904718B1284601F088FF002504E02846B6
:101D300001F083FF002500BF00BF00BFDFE770B5E3
:101D400005460C4622460321284600F0FFF870BDE8
:101D50002DE9FE4F044689467948B0F86200401CE0
:101D600081B27748A0F862106668307800074FEAC1
:101D70009068C8F10001204601F0A2FF10B9208947
:101D8000042800D2C3E0606890F800A0BAF1000F08
:101D900003D0BAF1080F7CD100E0B3E00127694815
:101DA000007800F0F000E02800D1002765490868BD
:101DB000494600F09CF900B1002767B96048B0F8C7
:101DC0007400401C81B25E48A0F87410204601F0F7
:101DD00034FFBDE8FE8F2089082800D297E0204616
:101DE00000F009F958B1204601F027FF5448B0F837
:101DF0006800401C81B25248A0F86810E9E722212F
:101E0000204601F05DFF48B34146204601F058FFEF
:101E100010B100BF00BF86E021890022022001F03E
:101E20002CFD074607B97EE000BF00BF21463846BB
:101E300001F05AFE10B100BF00BF74E07E68C8F127
:101E4000000001B2384601F03BFF10B100BF00BFF7
:101E500069E0204601F0F1FE3C4608E06FF0210108
:101E6000204601F02DFF10B100BF00BF5BE06568A8
:101E700034480068F0603448006830610020287001
:101E800068884FF6F771884204D368880930688003
:101E900003E027E0688808306880FF203072002067
:101EA00070811421304600F09CF870812448B0F80D
:101EB0006000401C2249A1F860004146204601F024
:101EC000FFFE08B100BF0CE001200021FF230A46FD
:101ED000CDE9010900911B49204600F05FFB074650
:101EE00000BF0FE01648B0F87000401C81B21448E3
:101EF000A0F87010B0F86600401C81B21048A0F83D
:101F0000661000BF00BF204601F097FE61E7204643
:101F100001F093FE0A48B0F86A00401C81B20848FC
:101F2000A0F86A1055E7204601F087FE0448B0F893
:101F30007400401C81B20248A0F8741000BF48E74A
:101F400058B00020C0000020BC0000202DE9FE4356
:101F500006460F46904600222421012001F08DFC08
:101F600005460DB9BDE8FE8300BF00BFD6F804905A
:101F70006C68277084F801800020A080E080716880
:101F80006A6802F108001C22FEF7EEF8002060806B
:101F90006989204600F025F860800C48B0F86000A0
:101FA000401C0A49A1F86000D9F80C0002900120F9
:101FB0000021FF2302AACDE90010284600F0C8FA4C
:101FC000284601F03AFE00BFCCE7000058B00020E0
:101FD00070B505460C4622460B212846FFF7B6FF92
:101FE00070BD70B504460D462946204601F086F8BE
:101FF000C04380B270BD2DE9F041064600240027A1
:10200000354617E06989686801F078F80444A0B2A1
:1020100000EB1444688900EBD0714910A0EB41013A
:1020200039B1C7F10100C7B2E0B2C4F3072141EAF8
:1020300000242D68002DE5D127B1E0B2C4F30721BB
:1020400041EA0024E04380B2BDE8F0812DE9F05F71
:102050000746884691469A460024A3463D4618E026
:102060006989686801F04AF80444A0B200EB14449E
:10207000688900EBD0714910A0EB410141B1CBF16F
:10208000010000F0FF0BE0B2C4F3072141EA002495
:102090002D68002DE4D1BBF1000F04D0E0B2C4F3F1
:1020A000072141EA0024D8F80060B0B204444FF69A
:1020B000FF7000EA16400444D9F80060B0B204444E
:1020C0004FF6FF7000EA16400444504600F08DFFC2
:1020D00004440A9800F089FF0444A0B200EB1444C1
:1020E000A0B200EB1444E04380B2BDE8F09F18B505
:1020F00002460092D04300B10AB9012018BD91F800
:10210000290000F0020008B90020F7E74868904273
:1021100001D10020F2E700988B681840D1E9013422
:102120002340984208D1886822EA00008C68E34383
:10213000984201D10120E1E70020DFE72DE9F74FC8
:102140008CB004468946B9F8200008901420049009
:102150004FF0000860680B900B9EF08800F092FF33
:1021600003900398C0F30C000790039800F400500C
:1021700006902089143880B209900899A1F11400C2
:10218000C11700EB5171C1F3CF010A91A9E0089882
:1021900014380999884201DB012000E000200590F5
:1021A0000798C0F30C00069908430390059818B9E6
:1021B000039840F400500390059808B1099801E095
:1021C0000A98C0001FFA80FB00221421022001F0AF
:1021D00054FB054625B94FF0FF300FB0BDE8F08F36
:1021E00000BF00BF142268680B99FDF7BDFF6E6841
:1021F000616804980844606061890498081A6081E5
:10220000CDF808B03FE061890298814201DD029873
:1022100000E060898046B8F1000F01D1246832E007
:1022200000F06AF807462FB9284601F006FD4FF086
:10223000FF30D2E760683B4602224146CDE9000804
:10224000032001F0EBFB8246BAF1000F08D13846BB
:1022500000F057F8284601F0F0FC4FF0FF30BCE7E3
:10226000204601F0AFFD7C61214838615146284687
:1022700001F00AFC0298A0EB080080B202900298DC
:1022800000B1246800BF02980028BCD1CDF81080AE
:10229000039800F0AAFEF0800BF1140188B200F060
:1022A000A4FE70800020708114213046FFF799FE53
:1022B0007081D9F81430294648460E9A98470D483F
:1022C000008E401C0B490886284601F0B6FC099890
:1022D000A0EB0B0080B209900A990798084480B2DD
:1022E0000790099800287FF452AF00BF75E70000FF
:1022F000D52D000858B0002010B5062001F0B6F921
:1023000010BD10B5044600BF00BF2146062001F0F5
:102310003DF910BD2DE9F04706460F468648B0F856
:102320004A00401C81B28448A0F84A107568287899
:102330000421B1EB201F14D0304601F07EFC7E4812
:10234000B0F85C00401C81B27B48A0F85C10B0F88B
:102350004E00401C81B27848A0F84E100020BDE825
:10236000F087287800F00F084FF6FF7000EA880821
:10237000688800F087FE81467089404502DB30891D
:10238000484513DA304601F058FC6B48B0F852006B
:10239000401C81B26848A0F85210B0F84E00401CB2
:1023A00081B26548A0F84E100020D8E74146284683
:1023B000FFF717FE98B1304601F03FFC5E48B0F8D9
:1023C0005000401C81B25C48A0F85010B0F84E009C
:1023D000401C81B25848A0F84E100020BFE7494683
:1023E000304601F0B3FC286954490860E868544954
:1023F00008604FF0010A3C4600BF94F8290000F045
:10240000010078B1201D68B1606858B14B48006880
:102410006168884205D0494908682146FFF767FE90
:1024200000B10DE0BAF1000F04D04FF0000A4548AA
:10243000046800E02468BC4200D12468002CDCD190
:1024400000BF3F4908683946FFF751FE28B93C48AC
:10245000007800F0F000E0280CD1304601F0EDFBF0
:102460003548B0F84E00401C81B23348A0F84E10F9
:10247000002074E724B9304601F0DFFB00206EE74E
:10248000E8884FF63F71084038B1304600F01AF93D
:1024900006460EB9002062E775682B4807602B4896
:1024A00005603946304601F0D7FCD0BB687A012878
:1024B0000DD0062806D011280ED13946304604F03A
:1024C000E1FB2DE03946304602F092F828E039462B
:1024D0003046FFF73DFC23E0184908683946FFF70E
:1024E00006FE50B91548007800F0F000E02804D04E
:1024F000756002213046FFF722FC304601F09DFB5B
:102500000D48B0F85800401C81B20B48A0F8581094
:10251000B0F84E00401C81B20748A0F84E1000BF32
:1025200000BF0020084908600849086004490860A5
:102530000249086000BF12E758B00020C000002028
:10254000BC0000204C000020B4000020B800002097
:102550002DE9FE4F06460F4615469846DDE90C9AD2
:1025600000BF00BF284600F047FB04000AD10A481C
:10257000B0F85600401C81B20748A0F85610201F42
:10258000BDE8FE8F43462A4639463046CDE9009ADB
:10259000029400F003F8F3E758B000202DE9F84F5B
:1025A0000646884691469A460C9F002500BF00BF0C
:1025B000B9F1000F64D04FF0140B1421304601F034
:1025C0007FFB50B13D48B0F85C00401C81B23B48F5
:1025D000A0F85C10A81EBDE8F88F746800BF00BFAB
:1025E00084F808A00B9860720B984AEA0020054412
:1025F000D9F800002061208A80B20544206905EBEB
:10260000104558464FEAEB710BEB9171C1F387010E
:1026100041F0400121700A98607021780A9841EADF
:1026200000200544308900F0E0FC608060880544AB
:102630000020E0802248008800F0D7FCA080A0881D
:1026400005441F480088401C1D490880B8F1000F50
:1026500002D0D8F8000010B97868E06002E0D8F83D
:102660000000E060A08980B20544E06805EB1045F9
:10267000A8B200EB154505EB1545ED43658103E078
:10268000746820690090E9460C48B0F84800401C86
:102690000A49A1F84800388C48B13089398C884201
:1026A00005DD4A4639463046FFF748FD93E74A467E
:1026B000314638467B6998478DE7000058B00020C6
:1026C000C40000202DE9F84F8046002000906F489C
:1026D000408E401C81B26D484186D8F8045028785D
:1026E00000F00F001421B1EB800F08D06748B0F85C
:1026F0004400401C81B26548A0F84410BAE0E88864
:1027000000F0C0FCC0F30C004FF6FF7101EAC00AF4
:10271000688800F0B7FC297801F00F01A0EB810078
:102720001FFA80FB404601F0D6F90646584801885A
:1027300088190A2810DD3146284600F0F7F920B143
:102740005348008830440A2806DD5048808F401CDA
:1027500081B24E4881878DE04E4804681AE0606976
:10276000E968884209D1A0692969884205D1A08910
:10277000A988884201D1012000E0002040B14348EF
:10278000B0F84600401C81B24048A0F8461003E073
:1027900000942468002CE2D100BF34B931462846A9
:1027A00000F042F9044694B964E0E88800F06AFC5D
:1027B000C0F30C0058B9E08900F064FCC0F30C00D1
:1027C00028B11422294604F10800FDF7CDFC304859
:1027D000008830442E490880A87900F0200030B9E4
:1027E000A07F40F00100A0770AEB0B00A0834146D8
:1027F000204600F051F8D0B3A08B1430A08360685D
:102800004068076860684568142204F1080128469A
:10281000FDF7AAFCA08B00F0E8FB68800020E880B0
:10282000688114212846FFF7DCFB6881D4F8048016
:102830000CE0D7F804906FF01301384601F040FA2D
:102840003946404601F020F9D9F80070002FF0D148
:102850002046009900F0D2F8404601F03CF90C49BE
:102860000988081A0A4908804046BDE8F88FFFE742
:102870000020FAE70548C08E401C81B20348C1869B
:10288000404601F0DAF90020EFE7000058B00020E0
:10289000CC000020C80000202DE9FC5F81460E46D8
:1028A00000254FF0010BD6F804A0BAF8020000F0A2
:1028B000E9FB9AF8001001F00F01A0EB810080B253
:1028C0000090BAF8060000F0DDFBC0F30C004FF6F4
:1028D000FF7101EAC000019000BF00BF74680020D2
:1028E00020600198A080DDE900100844E080D9F85C
:1028F00004802AE0D8F80470A088B988884210DAE9
:10290000C4F8008055B1A088E988884203DBE088DC
:10291000B988884200DD62E02E6001E0C9F80460F9
:1029200016E0A088B988884200D158E0A088F988CC
:10293000884200DA53E02DB1E888B988884201D096
:102940004FF0000BD7F800803D46B8F1000FD1D111
:1029500000BFB8F1000F0ED14DB100BF00BF2E6017
:10296000E888A188884206D04FF0000B03E000BF42
:1029700000BFC9F8046099F81E0000F0010060B3C0
:10298000BBF1000F26D0D9F804004068808810B150
:102990004FF0000B1EE02546D4F800800BE0D8F87D
:1029A0000440E888A188884202D04FF0000B05E07F
:1029B0002546D4F80080B8F1000FF0D100BFBBF17C
:1029C000000F07D000BF00BF00BF00BF00BF00BFA7
:1029D00000BF00BF5846BDE8FC9F0020FBE7304623
:1029E00001F079F804490988081A0349088030463B
:1029F00001F023F90020EEE7CC00002070B504467A
:102A00000D4608480068A04203D1064920680860C6
:102A100003E000BF00BF206828602146052000F0C9
:102A2000B5FD70BDC800002070B505460E460520F6
:102A300000F01CFE044694B93146284600F076F8B2
:102A4000B04203DB052000F011FE04463CB90D48FE
:102A5000808F401C81B20B488187002070BD2021EF
:102A60002046FDF79AFB0320E077074800682060C6
:102A7000054804601422294604F10800FDF774FBA0
:102A80002046EBE758B00020C80000202DE9F047B1
:102A900004468946002600BF00BFB9F1000F01D0EF
:102AA00000BF00BF6068D0F80480B8F80400C0B967
:102AB0006568D8F800006060142204F108016868B5
:102AC000FDF752FB01212846FFF782FA284601F064
:102AD00002F8074600BF00BFF01986B2284601F091
:102AE000ACF8656810E0D5F80480AA46D8F8005024
:102AF000504600F0F0FF074600BF00BFF01986B255
:102B0000504601F09AF800BF002DECD1494620460E
:102B1000FFF774FF00BF00BF03480088801B024915
:102B200008803046BDE8F087CC0000202DE9F05F3A
:102B300005468946002700BF0026B346B24619481D
:102B400004681DE06069E968884207D1A0692969C5
:102B5000884203D1A089A988884201D0012000E0E1
:102B6000002048B10AF1010A0EB9264604E0E07FD0
:102B7000F17F884200DC2646206800B1A346246825
:102B8000002CDFD12EB159463046FFF77FFF80463B
:102B900047444F4502DABAF1010FCDDC3846BDE8B3
:102BA000F09F0000C800002010B5044600F00AF8AD
:102BB000002203494FF47A7001F090F910BD000033
:102BC000A92B000870B500250A4804680FE0E07FD3
:102BD000002805DDE07F401EE0772546246806E0FA
:102BE0002646246829463046FFF750FF00BF002CD8
:102BF000EDD170BDC800002010B50246154801682F
:102C00000FE091F8290000F0010048B110688B68CE
:102C10001840D1E901342340984201D1084610BD43
:102C200009680029EDD10C48006830B10A480068F5
:102C300090F8290000F0010048B90848B0F85600A3
:102C4000401C83B20548A0F856300020E7E7024850
:102C50000068E4E74C0000205000002058B000203D
:102C600038B504466946204600F006F808B10098D9
:102C700038BD4FF0FF30FBE72DE9FF470646884699
:102C80006F46347800BF302C01DB392C03DD002087
:102C900004B0BDE8F08700254FF00A09302C0ED1B2
:102CA000701C06460478782C01D0582C05D14FF0C2
:102CB0001009701C0646047801E04FF0080900BFB7
:102CC000302C09DB392C07DCA4F1300005FB0905A9
:102CD000701C06460478F3E7B9F1100F1BD1302CB5
:102CE00001DB392C07DD612C01DB662C03DD412C77
:102CF00011DB462C0FDC612C03DB7A2C01DC61211B
:102D000000E0412104F10A00401A40EA0515701C58
:102D100006460478D4E700BF00BF2E2C09D103A8D3
:102D2000874201D30020B3E720C7701C0646047811
:102D3000A9E700BF00BF6CB1202C0BD00C2C09D030
:102D40000A2C07D00D2C05D0092C03D00B2C01D058
:102D500000209DE76846381A012101EBA0000528F4
:102D60002AD2DFE800F00305060F1B0000208FE7E2
:102D700025E0B5F1807F01D3002089E7009845EA7E
:102D800000651CE0B5F5803F01D3002080E7009886
:102D90000006019940EA0140054310E0FF2D01D9EA
:102DA000002075E700980006019940EA0140029969
:102DB00040EA0120054302E000BF00BF00BF00BFA2
:102DC000B8F1000F04D0284600F002F9C8F800005E
:102DD00001205DE770B505462C4600BF00BF00BF6F
:102DE00000BF606910B1606900F027FF2046FFF75F
:102DF00088FA70BD70B50446E569062084F82200A3
:102E00001448007884F823001248417824200155A2
:102E100010488178252001550E48C178262001559B
:102E20000C480179272001550A484179282001558D
:102E300040F2EE5020840748FDF7DEF900B170BD86
:102E400040F276411420FDF791FA322084F82900EF
:102E500000BFF4E7DC0000202DE9F0470646D6F875
:102E60001C900027164940F2EE50FDF79FFA1FFA1A
:102E700080F803224146104600F0FFFC054695B15C
:102E80002C4608E062890E4BD9196068FDF76CF991
:102E9000608907442468002CF4D10A484088401C0B
:102EA0000849488008E007488089401C0549888116
:102EB0000846C088401CC8802846BDE8F08700004E
:102EC00048B2002058B000202DE9F04106460F46D8
:102ED000D6F81C8000253C4608E062890A4B581948
:102EE0006168FDF741F9608905442468002CF4D13C
:102EF00005492846FDF7BAFA04480088401C0349F2
:102F000008800020BDE8F08148B2002058B00020C1
:102F100010B586B000F098F92848FDF76DF910B1AA
:102F2000012006B010BD00F066F8254800F076F8E4
:102F30002348407A01062248007A41EA00412048AD
:102F4000C07941EA00201E498979084305901C4850
:102F5000407B01061A48007B41EA00411848C07ACC
:102F600041EA00201649897A084304901448407CBD
:102F700001061348007C41EA00411148C07B41EA48
:102F800000200F49897B084303900E480E49002218
:102F900003ABCDE90021029004AA05A90B4800F07B
:102FA000B7FB04460CB90320BBE7084800F0FCFB64
:102FB000064800F047FC0020B3E70000DC000020DA
:102FC00000BE0020BD1B0008A51C000814BE002088
:102FD0000146080601F47F4240EA022001F47F0224
:102FE00040EA122040EA1160704701460806000CD2
:102FF00040EA1120704710B500F068FF00F024F996
:1030000000F0E6FA00F0BAFB03F03AFE01F0EEFA47
:10301000FDF7D2FF00F0B0FF10BD000015490978A0
:1030200001701449497841701249897881701149B9
:10303000C978C1700F49097901710E494979417107
:10304000C0218171A822C2710122027282224272C1
:10305000FF218172FF22C272027300224273C021DB
:103060008173A822C2730122027442740021817408
:1030700070470000DC00002000B503461846FFF74B
:10308000A7FF00BD00B502461046FFF7AEFF00BD2A
:1030900010B51548006815490968401A052806D971
:1030A00011480068114908601148FEF71FFE0E48DC
:1030B000006810490968401A41F28831884205D3F6
:1030C000094800680B490860FEF7C8FC064800681C
:1030D00009490968401AFA2805D3034800680649D7
:1030E000086003F0A1FC10BD00000020D800002003
:1030F00014BE0020D4000020D0000020F8B5054602
:103100000A462B4600200090002103F0010636B14C
:10311000002A04DD13F8010B8DF80100521E1C4635
:1031200003E034F8027B3944921E012AF9DC002ABC
:1031300002DD20788DF80000BDF80000014488B25F
:1031400000EB114188B200EB114126B1C8B2C1F3C6
:10315000072747EA002188B2F8BD000008B5FDF74F
:1031600043FEFDF787FB47214FF47A70FDF770FDB2
:10317000FFF7CEFE114908701FE0FFF789FF1048E6
:103180000068B0F57A7F18D900200D4908600D4815
:103190000078C0430B49097860F3000109480170C9
:1031A00000784008C0430749097860F341010548A9
:1031B000017000780090FDF783FBDEE7040000203B
:1031C000000000201C00002070B5054605B970BD48
:1031D00000BF00BF00BF00BF17480068854203D38F
:1031E00016480068854208D31548B0F8B000401C66
:1031F00081B21348A0F8B010E9E7A5F1080400BFB8
:1032000000BF002020710F480068844201D20D48A1
:103210000460208808490988611A411A0848B0F8F2
:10322000AA00401A81B20648A0F8AA10204600F071
:10323000CFFD00BFCBE7000040000020440000208D
:1032400058B000204800002000BF00BF134921F003
:103250000301134A1160114608684FF47A51018046
:103260000021418001711146096801F57A510D4A2A
:1032700011600121126811714FF47A51094A1268E4
:103280001180084A1268518005490968064A116090
:103290004FF47A51054AA2F8A81070474A07002057
:1032A00040000020440000204800002058B00020CA
:1032B000F0B502460AB90020F0BDD01C20F0030092
:1032C00082B20C2A00DA0C22B2F57A5F01DD00200E
:1032D000F2E74C4800884C4E3688801B83B281E070
:1032E00049480068C1180879002878D10E8803F190
:1032F0000800301A904272D30E8803F10800361A83
:1033000002F1140086422ED303F10800104485B266
:103310003D4800684419002020710888208063809F
:103320000D80012008712088B0F57A5F04D02088D4
:10333000354E36683044458000BF3448B0F8AA6046
:1033400002F10800304486B23048A0F8AA60B0F814
:10335000AC60B0F8AA00864204DA2C48B0F8AA6043
:10336000A0F8AC601BE00120087100BF0888264E61
:1033700036888E1B861B2548B0F8AA00304486B2DA
:103380002248A0F8AA60B0F8AC60B0F8AA00864263
:1033900004DA1E48B0F8AA60A0F8AC6000BF194873
:1033A0000068814211D1174E306803E00688164F3D
:1033B0003F68F01906791EB1154E3668B042F5D156
:1033C000104E306000BF00BF00BF00BF00BF00BF95
:1033D00000BF00BF00BF01F108006DE7FFE70A482A
:1033E0000068C35AC2F57A5098423FF779AF074850
:1033F000B0F8AE00401C86B20448A0F8AE600020D1
:103400005AE70000480000204000002058B000208B
:10341000440000202DE9F04107460A46D01C20F068
:10342000030082B20C2A00DA0C22B2F57A5F02DDC8
:103430000020BDE8F08100BF00BF5048006887420F
:1034400003D34F48006887420AD34E48B0F8B00013
:10345000401C1FFA80FC4B48A0F8B0C03846E8E793
:10346000A7F1080445480088201A86B22088801BEE
:10347000083885B200BF00BFAA4201DD0020D8E7AE
:10348000AA4201D13846D4E72088DFF8F0C0DCF842
:1034900000C000EB0C010879F0BB088806F1080CAD
:1034A00094441FFA8CF3DFF8E0C0DCF800C08C45D0
:1034B00008D1DFF8C8C0DCF800C09C44DFF8C88041
:1034C000C8F800C0DFF8B4C0DCF800C00CEB0301A2
:1034D0004FF0000C81F804C008804E802380B1F8C2
:1034E00000C0BCF57A5F08D0B1F800C0DFF88C806E
:1034F000D8F80080C444ACF80230DFF888C0BCF8CB
:10350000AAC0A5EB0208ACEB080C1FFA8CF8DFF898
:1035100074C0ACF8AA802EE0FFE702F11400A842C4
:1035200029D806F10800104483B214480068C11875
:1035300015480068814201D21348016000200871DB
:10354000208808804E8023800888B0F57A5F06D0F6
:103550000888DFF828C0DCF800C0604443800948D0
:10356000B0F8AA00A5EB020CA0EB0C001FFA80FC3F
:103570000448A0F8AAC038465BE7000040000020DD
:103580004400002058B000204800002030B501B9A8
:1035900030BD00BF00BF0A4600EB80040A4B03EBBE
:1035A00044035B885B1E9CB200EB8005064B03EB7B
:1035B00045035C80054B53F820301360034B43F800
:1035C000202000BFE4E700000AB10020DC45002015
:1035D00030B500201CE0002400EB80051E4B03EBFF
:1035E00045035C8000EB80051B4B03EB45039C808F
:1035F00000EB8005184B03EB4503DC80174B33F8D9
:10360000104000EB8005144B23F81540431C98B282
:103610000A28E0DB124B23F00301002019E000230D
:10362000104C44F8203000220CE00E4B53F82030B0
:103630000B600C4B43F820100B4B33F8103019443F
:10364000531C9AB2054B33F810309342EDDC431C07
:1036500098B20A28E3DB30BD0AB10020A47000084C
:1036600007460020DC4500209070000810B5014698
:1036700000BF0A2901DB002010BD00BF224850F81E
:10368000212082B3204B106843F8210000BF01EBDA
:1036900081031E4800EB43004088401C83B201EBCD
:1036A00081041A4800EB4400438001EB8103174872
:1036B00000EB4300838801EB8104144800EB4400D5
:1036C000408883420BDA01EB8103104800EB430092
:1036D000438801EB81040D4800EB4400838000BF68
:1036E00000BF00BF0EE0FFE701EB8103074800EBDE
:1036F0004300C088401C83B201EB8104034800EB07
:103700004400C3801046B7E7DC4500200AB1002022
:103710002DE9F04704460D4616461F46DDE909A986
:10372000DDF8208000BF00BF00206060A060E06086
:1037300084F82900C4F81C800E48007884F82C0016
:103740000C480078401C0B490870C4F810903B46A8
:1037500032462946204600F012F82046D04710B1E4
:103760000020BDE8F087044800682060024804603B
:103770002046F6E7540000204C00002070472DE959
:10378000F04106460F4614461D463946304600F0C5
:1037900017F82146304600F04FF82946304600F031
:1037A00009F8BDE8F0810000014908607047000099
:1037B0005000002009B9002200E00A68C26070478A
:1037C0002DE9F04107460C4654B3206879688842D9
:1037D00001D1012000E0002010BB154806680BE075
:1037E00030687968884206D1D6F80C80304600F0FF
:1037F00033FC464600E0F668002EF1D10D4805681E
:103800000CE055B1286840B128687968884204D135
:103810000CB9002000E020682860ED68002DF0D190
:103820000CB9002000E020687860BDE8F08100005D
:103830006C0000206800002009B9002200E00A683E
:103840008260704710B5044694F8290000F001002A
:1038500090B914F8290F40F00100207014F82909DC
:1038600000F0100040B194F8290000F0200018B1D9
:10387000211D2046FEF7C0F810BD2DE9F05F8346FC
:103880000F469046BBF1000F09D0BBF1010F08D0E5
:10389000BBF1020F07D0BBF1030F08D105E03626BC
:1038A0000AE0222608E00E2606E0002604E000BF1B
:1038B00000BF0020BDE8F09F00BFB8F1000F73D03B
:1038C000B8F1010F6DD0B8F1020F6BD0B8F1030F52
:1038D00069D10920FFF7CAFE04461CB900F030FA8E
:1038E0000020E7E784F80C800020206006F110003B
:1038F0002044C01C20F00300606000BF00BF27818F
:10390000F01C20F0030040F2EC51081AB84201DD2F
:10391000384605E0F01C20F0030040F2EC51081A94
:10392000608100BF00BF00BF00BF0120E081A24650
:103930006089A7EB00092FE00920FFF797FE0546F5
:1039400035B900F0FDF9204600F077F90020B1E725
:1039500085F80C80002068732860CAF8005000BF0A
:1039600000BFA5F808901FFA89F040F2EC51884298
:1039700002DA1FFA89F001E040F2EC50688105F1AB
:103980001000686000BF00BF00BF00BF0120E881D9
:103990006889A9EB0009AA46B9F1000FCCDC36E032
:1039A00002E020E020E02EE006F1130121F0030206
:1039B000F91C21F00301114488B2FFF779FC044699
:1039C0000CB9002076E704F110003044C01C20F050
:1039D00003006060278167810020206084F80C80EC
:1039E00000BF00BF13E000BF0820FFF73FFE044602
:1039F0000CB900205EE700206060278167812060AD
:103A000084F80C8003E000BF00BF002052E700BF35
:103A10000120E0810020607320464BE7F0B50546A9
:103A20000C46DDE9056735B1012D06D0022D06D023
:103A3000032D08D105E0362109E0222107E00E21FF
:103A400005E0002103E000BF00BF0020F0BD00BF83
:103A5000C81C20F003002044B84201DD0020F5E737
:103A6000002018602EB1C81C20F0030030445860BC
:103A700001E000205860022058731C815C811A7399
:103A80000120D8811846E1E710B5024600BF02B117
:103A900001B910BD00BF104604E003890C8923441E
:103AA000038100680368002BF7D100BF00BF00BF8F
:103AB00000BF03890C8923440381016000BFE8E74C
:103AC00030B505460C4621462846FFF7DDFF204667
:103AD00000F078F930BD0146002002E0421CD0B26F
:103AE00009680029FAD170472DE9F04105460C46D6
:103AF0000026002700BF25B11CB1288921898842F2
:103B000003DA6FF00D00BDE8F08100BF00BF6889E7
:103B1000801B6189C91B884204DB6089C01B1FFAB6
:103B200080F803E06889801B1FFA80F86268D11969
:103B30006A6890194246FCF717FB06EB080086B24C
:103B400007EB080087B200BF00BF00BF00BF60895D
:103B5000B84201DC002724686889B04208D10026F9
:103B60002D6800BF1DB914B16FF00D00CBE700BF89
:103B700054B160892189884206D100BF206810B104
:103B80006FF00500BFE700BF55B1688929898842F9
:103B900006D100BF286810B16FF00500B3E700BF81
:103BA000002CB4D10020AEE72DE9F05F80468946B5
:103BB00016461D464FF0000B00BFB8F1000F02D1B2
:103BC0000020BDE8F09F00BF00BFB9F1000F01D198
:103BD0000020F6E700BF4FF0000AB8F1000F02D056
:103BE000B9F1000F01D10020EBE7444620E035B1E8
:103BF0006089A84203DC6089281A85B217E06089D1
:103C0000401B87B2B74200DD37466268511909EBA5
:103C10000A003A46FCF7A8FA0BEB07001FFA80FBF4
:103C20000AEB07001FFA80FAF01B86B20025246811
:103C30000EB1002CDBD15846C3E72DE9F04704460E
:103C400024B900BF00BF0020BDE8F08700BF00BF5F
:103C5000002631E000BF00BFE089401E1FFA80F857
:103C6000A4F80E80B8F1000F24D12768257B607B73
:103C700000F0020038B1A14600BF00BF2046D9F8CD
:103C80001010884712E0032D04D121460920FFF7C8
:103C90007DFC0BE0012D01D0022D04D1214608202E
:103CA000FFF774FC02E02046FFF78EFA701CC6B2E4
:103CB0003C4600E0002400BF002CCBD13046C3E7D7
:103CC00070B5024600BF00BF01B10AB9002070BD47
:103CD000002908DA484284B200BF5089A04201DAC4
:103CE0000120F4E700E08CB2137B55680BB1032B85
:103CF0000AD15068401A506002F11000566886429E
:103D000015D255600120E2E7022B01D0012B0AD128
:103D1000002906DA5089A04203DB5068401A50603F
:103D200005E00120D3E700BF00BF0120CFE75089A5
:103D3000084450811089084410810020C7E7000022
:103D40000120014908707047550000202DE9F0411D
:103D500006460F4600BF00BF00BF00BF3089B84213
:103D600001DCBDE8F0813089A7EB00083D46344610
:103D70000AE06089281A85B200BF00BF208940444C
:103D80002081246800BF00BF6089A842F1DB207B4E
:103D900060B96089A84209D0A088001B284481B27C
:103DA0002046FFF737FB044600BF00BF65816089EE
:103DB0002081206810B12068FFF73FFF00202060BD
:103DC00000BFCEE710B1C189491CC1817047000016
:103DD00030B500BF00BF00BF00BF00BF00BF00BFC5
:103DE00000BF0388194C24681919884215D00B7933
:103DF0009BB9174B1B6899420FD0164B1B688B421F
:103E000001D1144B18600B880380104B1B88C31A18
:103E10000C880E4D2D682C44638043880B4C24681D
:103E20001A19824211D013797BB90A4B1B6883425D
:103E300001D1084B1A6003881380044B1B88D31AE6
:103E40000488024D2D682C44638030BD4000002062
:103E500044000020480000202DE9F04705468A462E
:103E60000027D5F8048098F80990002614480468C3
:103E70001FE0207C48451AD134B1206820B1114997
:103E800020680968884212D1606980B10E4B2A46C9
:103E90002146D4E905C0E04748B10025012736B1E5
:103EA000E068F06006480068E06005480460264667
:103EB000E4680FB9002CDCD13846BDE8F08700007B
:103EC00058000020C0000020BC0000207047000007
:103ED0000148006870470000000000202DE9F04113
:103EE00006460F4690460720FFF7C0FB04461CB964
:103EF00000BF00BFBDE8F08100202060A760C4F8CB
:103F00000C8066601B48006810B91A480460F1E72D
:103F1000184800684068B0420CD9164800684068EC
:103F2000801B1449096848601248006820601148E5
:103F300004601DE00F48056817E060686968401A72
:103F40006060286820B128684068616888420BD9A1
:103F5000286828B1286840686168401A2968486064
:103F6000286820602C6002E02D68002DE5D100BF9C
:103F700000BFBFE7A000002010B500220A494FF49F
:103F80007A70FFF7ABFF0022084941F28830FFF753
:103F9000A5FF002206494FF47A70FFF79FFFFFF755
:103FA00097FF0449086010BDA92B0008CD0D00083B
:103FB000C9120008A40000202DE9FC4704460E4663
:103FC00000BF00BF207E0A2808D121461F4801F00B
:103FD00039F921460220FFF7D9FA34E0276DD4F8E9
:103FE0002880D4F88C50D4F8109000BF214618488F
:103FF00001F028F901201749087000BF206F10B1A7
:10400000206F02F094FAE06E10B1E06E02F08FFAC9
:10401000606F10B1606F02F08AFA4EB1A08B618BB5
:10402000231D2246CDE900104146384602F010FA21
:1040300021460220FFF7AAFA00BF1DB16FF0090167
:104040004846A84700BFBDE8FC870000700000207C
:104050006C0000207800002010B5044601212046A5
:10406000FFF7AAFF10BD000070B506460220FFF75B
:10407000FDFA0446FCB900F0B7FD0220FFF7F6FA9E
:1040800004467CB9304600F085FD0220FFF7EEFAC9
:1040900004463CB12748B0F8CC00401E81B2254808
:1040A000A0F8CC103CB12348B0F8CC00401E81B23F
:1040B0002048A0F8CC10002C3AD098212046FCF7DC
:1040C0006CF81434667142F6A050A4F85200002037
:1040D000A4F8540041F2D06020836083002004F8EB
:1040E0000B0CFF2004F80A0C4FF4067060840620C5
:1040F00020860020A0850620E085C01F20840120A6
:10410000208700F031FE05466564E5636563A564BC
:104110000948006820610948007860730020E07257
:104120000748E0660748E067002084F88200143CF6
:10413000204670BD58B00020600000207A000020AA
:10414000D962000800DD6D0010B50446207E01280C
:1041500003D0A07F40F01000A0770121204600F09E
:1041600001F810BD7CB504460E46002E5BD0207EC3
:10417000042802D0207E072855D1A06F20B9A08D39
:1041800041F2D06188424ED000BF00BFA08B618B4E
:10419000CDE90010231D2246A16A206D02F058F9D6
:1041A000204601F02BF800BF00BF5A480068A0422B
:1041B00005D158480068C0685649086018E055485D
:1041C0000068554908600EE053480068C068A04286
:1041D00004D15149E0680968C86008E04E480068A9
:1041E000C0684D4908604C4800680028ECD100BF09
:1041F0000020E06000BF01204849087000BF207E19
:1042000004280AD10A20207600BF45480068E060F3
:104210004348046002F096FB03E021460220FFF7CA
:10422000B5F900207CBD207E082868D2DFE800F0C8
:1042300004343F4F5767675F0025608B30B300BF82
:1042400038480068A04205D136480068C068354942
:10425000086018E0334800682F4908600EE02E48D7
:104260000068C068A04204D12B49E0680968C860B2
:1042700008E029480068C0682749086026480068A7
:104280000028ECD100BF0020E06000BF21460220E2
:10429000FFF77CF9002435E000252146224800F094
:1042A000D1FF21460320FFF771F900242AE0002501
:1042B00000BF2146174800F0C5FF012017490870CC
:1042C00000BF21460220FFF761F900241AE02046D2
:1042D00002F069F905460DB90520207612E0204666
:1042E00002F061F905460DB9052020760AE0204666
:1042F00002F059F905460DB90920207602E00025A3
:10430000002400BF00BF1CB115B9204600F082FD9B
:10431000284687E76C000020740000207800002009
:104320007000002064000020680000202DE9F05F8C
:1043300007460E4691469A46DDF8288008F00100AF
:1043400008B1042000E0002008F0020109B10C21AE
:1043500000E0002145180420FFF788F9040005D18A
:104360003046FFF76AFC0020BDE8F09F84F80A8021
:104370000020206066603089401B20811421304677
:10438000FFF79EFC60B11848B0F8A400401C81B251
:104390001548A0F8A410204602F0BCF80020E3E77E
:1043A00060684068E060788BFEF71FFEE168088077
:1043B000B88BFEF71AFEE16848805046FEF708FE0B
:1043C000E1684860AB46E91705EB91718910491D1A
:1043D00049EA013188B2FEF708FEE16888810020D1
:1043E000E16848822046BFE758B000202DE9F0413F
:1043F00005460E463046FEF7FFFB044654B1208CBE
:1044000040B1208C283887B2BD4201DA284600E04E
:10441000384605462846BDE8F08100002DE9F843FE
:1044200004460D460027B84600BF00BFB4F8680038
:10443000282805DAB4F868004FF6FC7188420FD9D5
:104440004A48B0F89C00401C81B24848A0F89C1033
:10445000A07F40F08000A0774FF0FF30BDE8F883E8
:1044600005F0020000B1012707F0010008B10420A7
:1044700000E0002007F0020109B10C2100E000215A
:1044800000EB0108B4F8660050B93848B0F89C0059
:10449000401C81B23548A0F89C104FF0FF30DDE79A
:1044A000002241461046FFF7E8F95FEA00090ED105
:1044B000A07F40F08000A0772C48B0F89C00401C02
:1044C00081B22A48A0F89C104FF0FF30C6E700BF29
:1044D00000BF00972A4649462046E36DFFF726FFB6
:1044E00006000DD1A07F40F08000A0771F48B0F8F3
:1044F0009C00401C81B21D48A0F89C10701EADE7C6
:1045000000BF00BF00BF00BFE06E08B9E66607E06D
:10451000E06E00E0006801680029FBD1066000BF82
:104520000020A4F86A0005F0020010B905F00100AF
:1045300038B1E06D401CE065B4F86600401EA4F898
:10454000660005F0010018B1A07F40F02000A077C0
:104550007068FFF7C0FA34F8681F0844208034F808
:10456000680908B100BF00BF002077E758B00020FD
:1045700070B51B480078401C1949087000BF1948E5
:10458000046829E094F8210015490978884223D06D
:104590001348007884F82100A07F00F0010060B18A
:1045A00000BFA07F40F00200A07700BF204600F0CF
:1045B00031FCA07F20F00300A077E568A06F48B130
:1045C000002009490870204601F04CF9064800789F
:1045D00000B1D4E72C4600BF002CD3D170BD000041
:1045E0007A0000206C000020780000207047000056
:1045F0002DE9FC4706468A46F948B0F89200401C6F
:1046000081B2F748A0F89210F64970680860F54842
:1046100071680068007800F00F0001EB8000F2493B
:104620000860F048006800780007800E414230467C
:10463000FFF746FB10B93089142808D2E848B0F8D3
:104640009A00401C81B2E648A0F89A104DE2E74972
:1046500008685146FDF74BFD28B9E448007800F0A2
:10466000F000E02808D1DE48B0F8A000401C81B27C
:10467000DB48A0F8A01038E230890623DB4ADC4989
:1046800000903046FDF7E2FC40B1D548B0F8980004
:10469000401C81B2D248A0F8981026E2D24909689D
:1046A0008889FEF7EFFC4FEA20394FEA8900414242
:1046B0003046FFF705FB40B1C948B0F89A00401CEE
:1046C00081B2C748A0F89A100FE2C7490968088864
:1046D000FEF7D8FCC44909680880C34909684888BE
:1046E000FEF7D0FCC04909684880BF49096848689E
:1046F000FEF7C2FCBC4909684860BE490860BA4977
:1047000009688868FEF7B8FCB74909688860BA4943
:104710000860B5490968C889FEF7B4FCB249096860
:10472000C881B14909688889FEF7ACFC00F03F00F8
:10473000B24908703089097801F0030109B10121FB
:1047400000E000210844AE4908800027AD48046815
:104750002AE000BF00BF00BF00BF00BF00BFA08BAA
:10476000A1490968098888421CD1608B9E49096863
:104770004988884216D19E4960680968884211D1EB
:104780009A492068096888420CD100BF00BF37B140
:10479000E068F8609B480068E0609A48046000BFE9
:1047A00000BF03E02746E468002CD2D100BF002CF4
:1047B0004DD19548046820E000BF00BFA08B8A4916
:1047C00009680988884217D1608B87490968498838
:1047D000884211D186496068096888420CD18349B2
:1047E00020680968884207D1204602F0C7F83046A1
:1047F000FFF723FABDE8FC87E468002CDCD1002732
:104800008248056810E0688B7749096849888842C2
:1048100008D1764928680968884202D00DB1286815
:1048200000B903E02F46ED68002DECD100BF75B153
:1048300037B1E868F86075480068E860734805605B
:10484000284600F0EFF93046FFF7F7F9D2E7002CE1
:104850007ED000206E490860308908810846466095
:1048600061480068C86000206A4908606A490870A9
:104870006248007800F0080018B1707B40F0010039
:104880007073A06F98B1204600F0ECFF0A3028B199
:10489000A06F60B15A480088002808DD5048B0F881
:1048A0009600401C81B24E48A0F89610DDE05B48AF
:1048B0000460204600F010FD804608F10A00002840
:1048C00017D05548007800F0080098B100BFD4F820
:1048D0008C0028B16FF00A01D4F88C202069904731
:1048E00000BF2146474800F0ADFC21460220FEF7FC
:1048F0004DFEB9E04848007800F01000B8B1A07F44
:1049000000F0100050B900BFD4F88C0028B16FF04F
:104910000B01D4F88C202069904700BF214639480C
:1049200000F090FC21460220FEF730FE9CE04FF0A4
:104930000008B4F86400002812DD00BFE06F40B149
:10494000B4F864202146E36F20699847804602E06E
:104950009BE04FF0000800BF08F10A0000B984E0B6
:104960002C48006870B300BF00BFA07F00F01000AB
:1049700038B128480068FFF760F92046FFF76CFB64
:1049800073E000BFD4F8800048B100232149D4F877
:1049900080C020690A682146E047804607E000237E
:1049A0001C4821460268184601F096FC804600BF6C
:1049B00008F10A0000B958E0B8F1000F02D015481C
:1049C0000068A0671448007800F0200040B3A06F92
:1049D00038B3A06F407B40F02000A16F48733DE0EA
:1049E00058B000208400002080000020C00000207B
:1049F000BC000020880000208C00002090000020D7
:104A0000920000206C000020700000206800002050
:104A100070B1002098000020940000209C0000202D
:104A20001CE0FFE7A08D41F2D061884202D0A08D4A
:104A3000401CA08500BFD4F8800040B100231A4676
:104A40002146D4F880C02069E047804601E04FF05D
:104A5000000800BF08F10A0000B906E0002029495B
:104A60000860204600F0D6F900BF00202549086004
:104A70002549086025484068A0B324494868FFF7E5
:104A8000DCF80020214948602CE021490968888928
:104A9000FEF7F8FA00F0040008BB1E48B0F8A000CA
:104AA000401C81B21B48A0F8A010B0F89600401C32
:104AB00081B21848A0F8961015480068008814497B
:104AC00009684988CDE9001013480068134A128824
:104AD0008118134B134A1448006801F0B9FC3046A2
:104AE000FFF7ABF800BF00BF84E60A48B0F89600B5
:104AF000401C81B20748A0F896103046FFF79DF899
:104B000000BF77E69C0000209800002070B10020D4
:104B10008000002058B00020880000209200002073
:104B2000BC000020C00000208C0000202DE9FC41CA
:104B30000446216D481EFEF74BFA07463B4600220D
:104B40001146204600F046FA05460DB9BDE8FC8145
:104B50006E6828890623221D214600902846FDF70D
:104B600075FA30820A48B0F89000401C0849A1F854
:104B7000900006200021CDE90010A37A221D2146D5
:104B80002846FDF7E5FC2846FFF757F800BFDDE7AC
:104B900058B000202DE9F04106464FF07F0800276D
:104BA00000250F48046813E0607EB0420FDC607E91
:104BB00040450CDC0B49606A0968081AB84206D304
:104BC0000849606A09680F1A254694F81980E46854
:104BD000002CE9D115B12846FFF73EFABDE8F08177
:104BE0006C0000206000002070B5002600250B48F6
:104BF00004680BE00A49606A0968081AB04204D3E5
:104C00000749606A09680E1A2546E468002CF1D14C
:104C100015B12846FFF720FA70BD00007000002093
:104C2000600000207CB505464548007800F004008F
:104C300008B100207CBD4248007800F0100098B117
:104C40004048006800883F4909684988CDE900105C
:104C50003D4800683D4A128881183D4B3D4A3E4818
:104C6000006801F0F5FB69E03548007800F00200CB
:104C7000002863D0687EFFF7F7F9044654B9374837
:104C8000B0F89C00401C81B23448A0F89C104FF052
:104C9000FF30CFE72F4800682060688B60832C4886
:104CA00000686060274800680088A08303202076A1
:104CB00025480068401CA062A06A20632148006863
:104CC000C089A4F860001F480068C089A4F8620089
:104CD000B4F86000A4F84E001B480068401E6065F0
:104CE0002869206168696061287A00F08C00207270
:104CF00000BF00BF1A480068E0601948046001F076
:104D000021FE00BF01201749087000BF204600F0B7
:104D100019FAE08E211DFFF769FBE086122120467B
:104D2000FFF77CFB06462EB100212046FFF744F931
:104D300030467FE7204600F06DF87BE7002079E7FA
:104D400090000020800000208800002092000020B9
:104D5000BC000020C00000208C00002058B00020C3
:104D60006C000020780000200448006804490968AD
:104D70000844024908600846006870477C0000202B
:104D80006000002070B505460C46E9688889FEF78A
:104D900079F900F0010020B1204601F0C8FB0024A1
:104DA00033E013E0E1688889FEF76CF900F0010058
:104DB00038B10120FEF719F9E96889890843E968E3
:104DC000888126462468304601F0A4FB4CB1E06897
:104DD00040682189084429890D4A12681144081A3B
:104DE000E0D594B128890A4909680844E16849680E
:104DF000401A002809DDE068808805490988401AC2
:104E0000288129896868FEF7A1FF2C6070BD000029
:104E1000880000202DE9F047044600BF00BF6C4821
:104E20000068A04202D10020BDE8F087B4F860001D
:104E3000B4F84C10884202DAB4F8600001E0B4F82B
:104E40004C008146E56EA07F00F0020070B14DB1CC
:104E5000E9684868FEF710F9A16C401A29890844EE
:104E6000484503D9204601F06EFBDDE7266F26B1E9
:104E700000E0366830680028FBD191E000BFE968A7
:104E80008889FEF7FFF800BF206FA0B1A07F00F077
:104E9000440080B9E06E38B1E06E006858B9E06E49
:104EA0000089E18E884206DAB4F8660018B1B4F8D9
:104EB0006800282801DB012000E0002020B9A07F45
:104EC00000F0A00000B977E02868E066207E0228A4
:104ED0000BD01020FEF789F8E96889890843E96852
:104EE0008881A07F20F00300A0772146284600F0AB
:104EF000ADF8E9684868FEF7BFF80746E9688889B1
:104F0000FEF7C0F800F0030008B1012000E0002027
:104F10002989084407EB0008206DB0EB080001D593
:104F2000C4F85080E9688889FEF7ACF800F0030007
:104F300008B1012000E000202989084400282BDD69
:104F400000202860206F10B925672E4627E0E96809
:104F50004868FEF791F80746F1684868FEF78CF854
:104F6000381A16D504F1700700E03F68386860B160
:104F70003968C9684868FEF77FF88246E96848687A
:104F8000FEF77AF8BAEB0000EFD4386828603D608D
:104F900005E03560366802E0284601F0BBFAE56EB0
:104FA00055B1E9684868FEF767F8A16C401A29898D
:104FB000084448457FF662AF00BFE06E10B900209C
:104FC000A4F86A00A07F20F08000A07700202BE7E3
:104FD0009C0000202DE9F04705460E469046994674
:104FE00006F11400404481B200220120FEF745FC86
:104FF000074647B300BF00BF7C68688BFDF7F5FF2D
:105000002080A88BFDF7F1FF6080C4F80490A86AA7
:10501000FDF7DEFFA060B246F11706EB9171891033
:10502000491D102242EA013188B2FDF7DEFFA0815E
:10503000E88DFDF7DAFFE081002020826082E98DB3
:10504000A86A084428633846BDE8F0872DE9FC4784
:1050500005460C46A06AFDF7BBFFE9688860E08D55
:10506000FDF7C3FFE968C881E18DA06A08442063A9
:10507000E86800F11408A87A00F0010070B1211D61
:1050800040F2B450FFF7B2F9814649F00170FDF7E4
:105090009FFFC8F8000008F1040800BFB4F934000D
:1050A000401C08B90020A0860CB1206840B9201D22
:1050B000FDF7A2FD06460EB9BDE8FC8770682060CA
:1050C000A06B38B91D480068A063E9684868FDF71F
:1050D000D3FFE063A88969688988401A87B2686845
:1050E0004089C01B6968488168680089C01B69687D
:1050F00008816968E86848600020E9680882686893
:10510000008900900623221D21466868FCF79EFF57
:10511000E96808820A48B0F89000401C0849A1F8E4
:1051200090000621607ACDE90001A37A221D214674
:105130006868FDF70DFA00BFBEE7000060000020C0
:1051400058B000202DE9F04780462B48006800F158
:105150001405294909688889FDF794FF0521B1EBF9
:10516000203F46DA244909688889FDF78BFF05212D
:10517000C1EB20304FF6FF7101EA8006002436E0D3
:1051800015F80490B9F1000F06D0B9F1010F05D060
:10519000B9F1020F21D104E0BDE8F087601C84B2B0
:1051A00024E0601C285C042802D1201DB04200DDF0
:1051B000F2E7E01C295CA01C285C41EA002740F2D1
:1051C000B450874200DC17B940F2B45000E03846D2
:1051D000A8F83600201D84B208E0601C285C00B9E5
:1051E000DAE7601C285C204484B200BF00BFB442F0
:1051F000C6DB00BFD0E700008000002010B50446E9
:10520000207EF0B1207E0A281BD0207E012818D0F5
:10521000A06F20B1A06FFEF710FD0020A067606FA7
:1052200001F085F900206067401EA086E06E01F065
:105230007EF9206F01F07BF90020E0662067A4F87A
:105240006A0010BD70B505460C4600BF2868A04234
:1052500003D12868C068286017E01E4928680860E4
:105260000EE01C480068C068A04204D11949E068FB
:105270000968C86008E017480068C06815490860F8
:10528000144800680028ECD100BF0020E06000BF97
:105290002046FFF7B3FF207E0A280DD0207E01288C
:1052A0000AD0A07F00F0010030B1A07F40F00200E2
:1052B000A0772046FFF7AEFD207E012805D000BF75
:1052C00000BF00BF00BF00BF00BF0020207600BFAE
:1052D00000BF70BD740000202DE9FC4104464FF072
:1052E00000080026FE48007800F0040070B3207E1D
:1052F000022807D1FB49206D0968884211D14FF07F
:1053000001080EE0F849A06A0968081A09D4A18DBD
:10531000A06A0844F4490968081A002801DC4FF023
:105320000108B8F1000F0FD000BF00BFEF480078B0
:1053300040F00800ED490870A07F20F00100A07740
:105340006FF00A00BDE8FC810020FBE7E44800782C
:1053500000F0020068B1207E02280AD0207E0328D7
:1053600007D000BFA07F40F00200A07700BF002060
:10537000E8E7A07F00F0100010B9DD480068606227
:10538000002084F896002046FFF7DCFE207E801E79
:10539000082873D2DFE800F0049BF0EFEEEDECEBB1
:1053A000CF48007800F01000002877D0CC48007873
:1053B00000F00200002871D0216FC9684868FDF72D
:1053C0005BFE401CC7490968884267D12834E08FDA
:1053D000401CE087C4480068401C20602068A06032
:1053E000C04800682062C3480068C0892087C1485F
:1053F0000068C0896087BC480068401EE0620420E5
:1054000004F8100CE089283C211DFEF7EFFFE08630
:10541000E08E00EB80004FF6FF7101EA4000A4F837
:105420004E00B4F84C00012802D1E08E400000E0AC
:10543000E08EA4F84C0000BF00BFB4F86800401E26
:10544000A4F86800256F28682067284601F062F8F4
:10545000206F18B94FF0FF30A08603E00020A0862F
:1054600084F8460000BFD4F8840048B100222146E9
:10547000D4F8843020699847064602E0E0E10DE068
:10548000002600BF06F10A0010B96FF0090059E7C5
:1054900000BFA07F40F00200A07717E0904800789E
:1054A00000F0100090B193480068008891490968A5
:1054B0004988CDE900108C4800688F4A128881180D
:1054C0008E4B8F4A8748006800F0C2FFB9E18448DC
:1054D000007800F01000002863D0A06C401C8149C7
:1054E0000968081A49D47F49206D0968081A0028FC
:1054F00043DC0420207600BF00BF00BF606930B1EC
:1055000000222146D4E904039847064601E06FF0E3
:105510000D0600BF46B106F10A0010B12046FEF7A5
:105520009BFD6FF009000DE7B4F84C70204600F0C9
:10553000E1F9B4F8640020B1B4F86400401EA4F8A6
:105540006400012F02D1E08E400000E0E08EA4F85C
:105550004C006648007800F0200038B100BFA07F02
:1055600040F00200A07700BF0720207627E053E13B
:1055700008E125E0A1E035E023E05E48006800880E
:105580005C4909684988CDE90010574800685A4AC3
:1055900012888118594B5A4A5248006800F058FF47
:1055A0000DE04F48007800F0020040B1A06A401EB4
:1055B0004D490968884202D1204600F0C7FE40E10B
:1055C00000BF204600F096F94848007800F020001F
:1055D00038B100BFA07F40F00200A07700BF0720D5
:1055E00020762EE1204600F085F94048007800F052
:1055F0002000E8B33A48007800F01000C8B33949F9
:10560000206D0968884242D100BFA07F40F00200AF
:10561000A07700BF2046FFF7F1FD00BF00BF39486B
:105620000068A04205D137480068C0683549086065
:1056300018E034480068344908600EE032480068D9
:10564000C068A04204D13049E0680968C86008E039
:105650002D480068C0682C4908602B480068002865
:10566000ECD100BF0020E06000BF0120274901E02D
:1056700016E00CE0087000BF0A20207600BF244826
:105680000068E0602248046001F05CF914E000BFAB
:10569000A07F40F00200A07700BF082020760BE03A
:1056A0000F48007800F0100030B10E49206D0968F5
:1056B000884201D106202076C3E0204600F01AF986
:1056C0000A48007800F0200078B300BFA07F40F0C7
:1056D0000200A07700BF2046FFF790FD00BF19E051
:1056E000900000208C000020880000209400002002
:1056F000600000208000002092000020BC000020FC
:10570000C00000206C000020740000207800002001
:105710007000002000BF4C480068A04206D14A48F3
:105720000068C0684849086019E02AE046480068F7
:10573000464908600EE045480068C068A04204D1B0
:105740004249E0680968C86008E040480068C068ED
:105750003E4908603D4800680028ECD100BF0020A9
:10576000E06000BF01203A49087000BF0A2020769F
:1057700000BF38480068E0603648046001F0E2F895
:1057800000BF5EE0204600F0B5F83348007800F036
:105790001000E0B33149206D096888423BD12046B2
:1057A000FFF72CFD00BF00BF27480068A04205D1CD
:1057B00025480068C0682449086018E0224800684D
:1057C000224908600EE021480068C068A04204D168
:1057D0001E49E0680968C86008E01C480068C068A5
:1057E0001A490860194800680028ECD100BF002061
:1057F000E06000BF01201649087000BF0A20207633
:1058000000BF14480068E0601248046000E002E055
:1058100001F098F800BF14E0204600F06BF80E4845
:10582000007800F0100050B10C49206D09688842E2
:1058300005D10B48007840F010000949087000E0DD
:1058400000BF00BF00207DE56C0000207400002038
:105850007800002070000020900000208C000020C4
:10586000940000202DE9F0410446A06F477BA66F0D
:105870000020A06700BFD4F8800040B1002332466A
:105880002146D4F880C02069E047054606E00023A1
:1058900032462146184600F01FFD054600BF05BBF5
:1058A00007F0200020B3A08D41F2D061884202D0E1
:1058B000A08D401CA08500BFD4F8800040B100231B
:1058C0001A462146D4F880C02069E047054600E02A
:1058D000002500BF05F10A0050B96FF00900BDE8CE
:1058E000F08105F10A0010B96FF00900F7E7A6672B
:1058F0000020F4E72DE9FE4F04460020009000BF91
:1059000000BFFE48007800F0100000287ED0B4F8F8
:105910006000A16D08440290F949606D0968401A61
:1059200015D4F749606D0968884204D1F549A06D26
:105930000968401A0BD4F349A06D0968884231D137
:10594000F1480068C089B4F8601088422ADDEE484A
:105950000068C089A4F86000B4F86200EA490968E8
:10596000C989884204DAE8480068C089A4F862005E
:10597000E34800686065E3480068A065B4F860002B
:1059800048B994F8950068B9002084F89400012083
:1059900084F8950006E094F89500002802DD0020C8
:1059A00084F89500D749A06C0968081A002848DCDB
:1059B0000020A4F86400D548008840BBB4F860100B
:1059C000A06D01440298814235D1B4F93400002819
:1059D00031DBCC49A06C096888422CD101200090B1
:1059E00094F84700401CC0B294F84710884204DD88
:1059F00094F84700401C84F8470094F847000328B7
:105A000012DDB4F84C00E18E084401E04AE10AE0FE
:105A100080B2B4F84C1088420DDDB4F84C00E18E31
:105A20000844A4F84C0006E094F84700032802D18B
:105A3000204600F0B8FC0098002801D184F8470007
:105A4000ADE0A06C401CAF490968081A7ED4AD498E
:105A5000206D0968081A002878DCA07F00F0040097
:105A600038B1A07F20F00400A077B4F84E00A4F86D
:105A70004C0000202834A077608BB4F9181000EB9C
:105A8000E10000B2A083208C9E490988081AA087F3
:105A9000E08FA18F0844E0870020E07799480068F4
:105AA000206214F8100C283C042824DBB4F84C00C5
:105AB000B4F84E1088420FDAB4F84C00E18E084476
:105AC00080B2B4F84C10884215DDB4F84C00E18E79
:105AD0000844A4F84C000EE034F8361F4943E28A2B
